{"abi":[{"type":"constructor","inputs":[{"name":"_swapRouter","type":"address","internalType":"address"},{"name":"_riftExchange","type":"address","internalType":"address"},{"name":"_cbBTC","type":"address","internalType":"address"},{"name":"_permit2","type":"address","internalType":"address"},{"name":"_universalRouter","type":"address","internalType":"address"}],"stateMutability":"nonpayable"},{"type":"function","name":"approveAndDepositTest","inputs":[{"name":"params","type":"tuple","internalType":"struct Types.DepositLiquidityParams","components":[{"name":"depositOwnerAddress","type":"address","internalType":"address"},{"name":"specifiedPayoutAddress","type":"address","internalType":"address"},{"name":"depositAmount","type":"uint256","internalType":"uint256"},{"name":"expectedSats","type":"uint64","internalType":"uint64"},{"name":"btcPayoutScriptPubKey","type":"bytes22","internalType":"bytes22"},{"name":"depositSalt","type":"bytes32","internalType":"bytes32"},{"name":"confirmationBlocks","type":"uint8","internalType":"uint8"},{"name":"safeBlockLeaf","type":"tuple","internalType":"struct Types.BlockLeaf","components":[{"name":"blockHash","type":"bytes32","internalType":"bytes32"},{"name":"height","type":"uint32","internalType":"uint32"},{"name":"cumulativeChainwork","type":"uint256","internalType":"uint256"}]},{"name":"safeBlockSiblings","type":"bytes32[]","internalType":"bytes32[]"},{"name":"safeBlockPeaks","type":"bytes32[]","internalType":"bytes32[]"}]},{"name":"cbBTCReceived","type":"uint256","internalType":"uint256"}],"outputs":[],"stateMutability":"nonpayable"},{"type":"function","name":"cbBTC","inputs":[],"outputs":[{"name":"","type":"address","internalType":"address"}],"stateMutability":"view"},{"type":"function","name":"executeSwap","inputs":[{"name":"swapCalldata","type":"bytes","internalType":"bytes"},{"name":"owner","type":"address","internalType":"address"},{"name":"amountIn","type":"uint256","internalType":"uint256"},{"name":"tokenIn","type":"address","internalType":"address"}],"outputs":[{"name":"result","type":"tuple","internalType":"struct Types.BundlerResult","components":[{"name":"initialCbBTCBalance","type":"uint256","internalType":"uint256"},{"name":"finalCbBTCBalance","type":"uint256","internalType":"uint256"},{"name":"cbBTCReceived","type":"uint256","internalType":"uint256"}]}],"stateMutability":"payable"},{"type":"function","name":"executeSwapAndDeposit","inputs":[{"name":"amountIn","type":"uint256","internalType":"uint256"},{"name":"swapCalldata","type":"bytes","internalType":"bytes"},{"name":"params","type":"tuple","internalType":"struct Types.DepositLiquidityParams","components":[{"name":"depositOwnerAddress","type":"address","internalType":"address"},{"name":"specifiedPayoutAddress","type":"address","internalType":"address"},{"name":"depositAmount","type":"uint256","internalType":"uint256"},{"name":"expectedSats","type":"uint64","internalType":"uint64"},{"name":"btcPayoutScriptPubKey","type":"bytes22","internalType":"bytes22"},{"name":"depositSalt","type":"bytes32","internalType":"bytes32"},{"name":"confirmationBlocks","type":"uint8","internalType":"uint8"},{"name":"safeBlockLeaf","type":"tuple","internalType":"struct Types.BlockLeaf","components":[{"name":"blockHash","type":"bytes32","internalType":"bytes32"},{"name":"height","type":"uint32","internalType":"uint32"},{"name":"cumulativeChainwork","type":"uint256","internalType":"uint256"}]},{"name":"safeBlockSiblings","type":"bytes32[]","internalType":"bytes32[]"},{"name":"safeBlockPeaks","type":"bytes32[]","internalType":"bytes32[]"}]},{"name":"owner","type":"address","internalType":"address"},{"name":"permit","type":"tuple","internalType":"struct ISignatureTransfer.PermitTransferFrom","components":[{"name":"permitted","type":"tuple","internalType":"struct ISignatureTransfer.TokenPermissions","components":[{"name":"token","type":"address","internalType":"address"},{"name":"amount","type":"uint256","internalType":"uint256"}]},{"name":"nonce","type":"uint256","internalType":"uint256"},{"name":"deadline","type":"uint256","internalType":"uint256"}]},{"name":"signature","type":"bytes","internalType":"bytes"}],"outputs":[{"name":"result","type":"tuple","internalType":"struct Types.BundlerResult","components":[{"name":"initialCbBTCBalance","type":"uint256","internalType":"uint256"},{"name":"finalCbBTCBalance","type":"uint256","internalType":"uint256"},{"name":"cbBTCReceived","type":"uint256","internalType":"uint256"}]}],"stateMutability":"payable"},{"type":"function","name":"executeSwapAndDepositTest","inputs":[{"name":"swapCalldata","type":"bytes","internalType":"bytes"},{"name":"owner","type":"address","internalType":"address"},{"name":"amountIn","type":"uint256","internalType":"uint256"},{"name":"tokenIn","type":"address","internalType":"address"},{"name":"params","type":"tuple","internalType":"struct Types.DepositLiquidityParams","components":[{"name":"depositOwnerAddress","type":"address","internalType":"address"},{"name":"specifiedPayoutAddress","type":"address","internalType":"address"},{"name":"depositAmount","type":"uint256","internalType":"uint256"},{"name":"expectedSats","type":"uint64","internalType":"uint64"},{"name":"btcPayoutScriptPubKey","type":"bytes22","internalType":"bytes22"},{"name":"depositSalt","type":"bytes32","internalType":"bytes32"},{"name":"confirmationBlocks","type":"uint8","internalType":"uint8"},{"name":"safeBlockLeaf","type":"tuple","internalType":"struct Types.BlockLeaf","components":[{"name":"blockHash","type":"bytes32","internalType":"bytes32"},{"name":"height","type":"uint32","internalType":"uint32"},{"name":"cumulativeChainwork","type":"uint256","internalType":"uint256"}]},{"name":"safeBlockSiblings","type":"bytes32[]","internalType":"bytes32[]"},{"name":"safeBlockPeaks","type":"bytes32[]","internalType":"bytes32[]"}]}],"outputs":[{"name":"result","type":"tuple","internalType":"struct Types.BundlerResult","components":[{"name":"initialCbBTCBalance","type":"uint256","internalType":"uint256"},{"name":"finalCbBTCBalance","type":"uint256","internalType":"uint256"},{"name":"cbBTCReceived","type":"uint256","internalType":"uint256"}]}],"stateMutability":"payable"},{"type":"function","name":"permit2","inputs":[],"outputs":[{"name":"","type":"address","internalType":"address"}],"stateMutability":"view"},{"type":"function","name":"permitTransfer","inputs":[{"name":"owner","type":"address","internalType":"address"},{"name":"amountIn","type":"uint256","internalType":"uint256"},{"name":"permitted","type":"tuple","internalType":"struct ISignatureTransfer.PermitTransferFrom","components":[{"name":"permitted","type":"tuple","internalType":"struct ISignatureTransfer.TokenPermissions","components":[{"name":"token","type":"address","internalType":"address"},{"name":"amount","type":"uint256","internalType":"uint256"}]},{"name":"nonce","type":"uint256","internalType":"uint256"},{"name":"deadline","type":"uint256","internalType":"uint256"}]},{"name":"signature","type":"bytes","internalType":"bytes"}],"outputs":[],"stateMutability":"nonpayable"},{"type":"function","name":"riftExchange","inputs":[],"outputs":[{"name":"","type":"address","internalType":"address"}],"stateMutability":"view"},{"type":"function","name":"swapRouter","inputs":[],"outputs":[{"name":"","type":"address","internalType":"address"}],"stateMutability":"view"},{"type":"function","name":"testFunction","inputs":[],"outputs":[{"name":"","type":"bool","internalType":"bool"}],"stateMutability":"nonpayable"},{"type":"function","name":"universalRouter","inputs":[],"outputs":[{"name":"","type":"address","internalType":"address"}],"stateMutability":"view"},{"type":"event","name":"BundlerExecution","inputs":[{"name":"owner","type":"address","indexed":true,"internalType":"address"},{"name":"cbBTCReceived","type":"uint256","indexed":false,"internalType":"uint256"}],"anonymous":false},{"type":"event","name":"PermitTransferExecuted","inputs":[{"name":"owner","type":"address","indexed":true,"internalType":"address"},{"name":"numTransfers","type":"uint256","indexed":false,"internalType":"uint256"}],"anonymous":false},{"type":"event","name":"RiftDepositExecuted","inputs":[{"name":"riftExchange","type":"address","indexed":true,"internalType":"address"},{"name":"depositAmount","type":"uint256","indexed":false,"internalType":"uint256"}],"anonymous":false},{"type":"event","name":"SwapExecuted","inputs":[{"name":"initialCbBTCBalance","type":"uint256","indexed":false,"internalType":"uint256"},{"name":"finalCbBTCBalance","type":"uint256","indexed":false,"internalType":"uint256"},{"name":"cbBTCReceived","type":"uint256","indexed":false,"internalType":"uint256"}],"anonymous":false},{"type":"error","name":"ApprovalToRiftExchangeFailed","inputs":[]},{"type":"error","name":"SwapExecutionFailed","inputs":[]}],"bytecode":{"object":"0x6101203461012357601f61174b38819003918201601f19168301916001600160401b038311848410176101275780849260a094604052833981010312610123576100488161013b565b906100556020820161013b565b6100616040830161013b565b9061007a60806100736060860161013b565b940161013b565b9360805260a05260c05260e052610100526040516115fb9081610150823960805181818161018c015281816107450152818161088701528181610cf501526114ed015260a05181818161026b015281816104cb01528181610fa6015261132e015260c0518181816101260152818161082301528181610c7201528181610f1e0152611374015260e0518181816105fc01528181610b500152610fe701526101005181610f620152f35b5f80fd5b634e487b7160e01b5f52604160045260245ffd5b51906001600160a01b03821682036101235756fe6080806040526004361015610012575f80fd5b5f905f3560e01c90816312261ee714610fd5575080631c919e1014610f9157806335a9e4df14610f4d5780635ad182d314610f095780636ca79b93146109f55780639a9bf481146107b9578063a49e59f814610774578063c31c9c071461072f578063cf61e1ec14610525578063e16b4a9b146104795763f246274014610097575f80fd5b60a0366003190112610392576004356001600160401b038111610475576100c2903690600401611016565b91906100cc611059565b906100d5611043565b92608435946001600160401b038611610475576101806003198736030112610475576100ff6110ee565b5061011061010b61110c565b61146e565b6040516370a0823160e01b8152306004820152947f00000000000000000000000000000000000000000000000000000000000000006001600160a01b03169390602087602481885afa96871561046a578497610430575b509183929161017984936044356114d6565b81604051928392833781018381520390347f00000000000000000000000000000000000000000000000000000000000000005af16101b5611138565b5015610421576040516370a0823160e01b815230600482015291602083602481845afa9283156103955782936103e9575b506101f18584611176565b935f5160206115a65f395f51905f526040518061022188888b846040919493926060820195825260208201520152565b0390a16040518581526001600160a01b03909116907f5798042aa6f4acc5fdf6fc5c6c8a1f092d35373907c7bf9ac07a40c40a29953090602090a260405163095ea7b360e01b81527f00000000000000000000000000000000000000000000000000000000000000006001600160a01b038116600483015260248201869052916020908290604490829087905af19081156103de5783916103af575b50156103a0576001600160a01b031690813b1561039257604051632433c70360e11b81528181806102f46004808c01908301611207565b038183875af180156103955761037d575b50507fa31e8bc1bdee2d6252cc2eaffcfd97de92d288a10a0c3699f5b066a6697a33b560206103799660446040519101358152a26040519261034684611083565b83526020830152604082015260405191829182919091604080606083019480518452602081015160208501520151910152565b0390f35b6103888280926110cd565b6103925780610305565b80fd5b6040513d84823e3d90fd5b631a791b7760e11b8252600482fd5b6103d1915060203d6020116103d7575b6103c981836110cd565b810190611197565b5f6102bd565b503d6103bf565b6040513d85823e3d90fd5b9092506020813d602011610419575b81610405602093836110cd565b810103126104155751915f6101e6565b5f80fd5b3d91506103f8565b63382a82a760e11b8152600490fd5b91929096506020823d602011610462575b8161044e602093836110cd565b810103126104155790519590919083610167565b3d9150610441565b6040513d86823e3d90fd5b5080fd5b5034610392578060031936011261039257506104c260405161049c6040826110cd565b601481527315195cdd08199d5b98dd1a5bdb8818d85b1b195960621b602082015261146e565b604051606481527f00000000000000000000000000000000000000000000000000000000000000006001600160a01b0316907fa31e8bc1bdee2d6252cc2eaffcfd97de92d288a10a0c3699f5b066a6697a33b590602090a2602060405160018152f35b50346103925760e0366003190112610392576004356001600160a01b03811690819003610475578160243560803660431901126104755760c4356001600160401b03811161072b5761057b903690600401611016565b5f8060409493945163161765e160e11b6020820152876024820152602481526105a56044826110cd565b6020815191016a636f6e736f6c652e6c6f675afa505f8060405163f82c50f160e01b6020820152846024820152602481526105e16044826110cd565b6020815191016a636f6e736f6c652e6c6f675afa50604051917f00000000000000000000000000000000000000000000000000000000000000006001600160a01b03169061062e846110b2565b30845260208401908152813b156107275760405163187945bd60e11b8152946044356001600160a01b038116929083900361072357868581968a9894610124948a96859860048701526064356024870152608435604487015260a435606487015260018060a01b0390511660848601525160a48501523360c485015261010060e485015281610104850152848401378181018301849052601f01601f191681010301925af180156103955761070e575b50507fa3af27cbdd5938c0f2e793fee942c0b3ec8ea9384af488c16a446d87cd5d7bf6602060405160018152a280f35b81610718916110cd565b61047557815f6106de565b8780fd5b8580fd5b8280fd5b50346103925780600319360112610392576040517f00000000000000000000000000000000000000000000000000000000000000006001600160a01b03168152602090f35b5034610392576040366003190112610392576004356001600160401b038111610475576101806003198236030112610475576107b6906024359060040161131f565b80f35b506080366003190112610392576004356001600160401b038111610475576107e5903690600401611016565b906107ee611059565b90836107f8611043565b936108016110ee565b5061080d61010b61110c565b6040516370a0823160e01b8152306004820152947f00000000000000000000000000000000000000000000000000000000000000006001600160a01b03169390602087602481885afa96871561046a5784976109b8575b50906108748493926044356114d6565b81604051928392833781018381520390347f00000000000000000000000000000000000000000000000000000000000000005af16108b0611138565b50156109a957926020602494604051958680926370a0823160e01b82523060048301525afa90811561099d5790610969575b61037993506108f18382611176565b915f5160206115a65f395f51905f5260405180610921868689846040919493926060820195825260208201520152565b0390a16040518381526001600160a01b03909116907f5798042aa6f4acc5fdf6fc5c6c8a1f092d35373907c7bf9ac07a40c40a29953090602090a26040519261034684611083565b506020833d602011610995575b81610983602093836110cd565b810103126104155761037992516108e2565b3d9150610976565b604051903d90823e3d90fd5b63382a82a760e11b8452600484fd5b9291935095506020823d6020116109ed575b816109d7602093836110cd565b8101031261041557905194869290610874610864565b3d91506109ca565b50610120366003190112610415576004356024356001600160401b03811161041557610a25903690600401611016565b9190604435936001600160401b03851161041557610180600319863603011261041557610a50611043565b608036608319011261041557610104356001600160401b03811161041557610a7c903690600401611016565b94610a856110ee565b50604095610ac78751610a9889826110cd565b601a81527f457865637574696e67207377617020616e64206465706f736974000000000000602082015261146e565b865163161765e160e11b60208201526001600160a01b0390941660248086018290528552935f908190610afb6044826110cd565b6020815191016a636f6e736f6c652e6c6f675afa505f80885163f82c50f160e01b602082015284602482015260248152610b366044826110cd565b6020815191016a636f6e736f6c652e6c6f675afa508651917f00000000000000000000000000000000000000000000000000000000000000006001600160a01b031690610b82846110b2565b30845260208401908152813b1561041557885163187945bd60e11b8152946084356001600160a01b038116929083900361041557868581965f9894610124948a968598600487015260a435602487015260c435604487015260e435606487015260018060a01b0390511660848601525160a48501523360c485015261010060e485015281610104850152848401378181018301849052601f01601f191681010301925af18015610eff57610eea575b50807fa3af27cbdd5938c0f2e793fee942c0b3ec8ea9384af488c16a446d87cd5d7bf66020865160018152a283516370a0823160e01b8152306004820152947f00000000000000000000000000000000000000000000000000000000000000006001600160a01b031690602087602481855afa968715610ee0578497610eac575b5085516370a0823160e01b815230600482015294602086602481865afa958615610ea2578596610e6e575b508185929183928951928392833781018381520390347f00000000000000000000000000000000000000000000000000000000000000005af1610d1e611138565b5015610e5f5760206024918651928380926370a0823160e01b82523060048301525afa8015610e55578390610e16575b5f5160206115a65f395f51905f529150610d688582611176565b865195865260208601919091526040850181905293606090a182850191828611610e025750610d9d836103799760040161131f565b7f5798042aa6f4acc5fdf6fc5c6c8a1f092d35373907c7bf9ac07a40c40a29953060208551858152a2825193610dd285611083565b84526020840152818301525191829182919091604080606083019480518452602081015160208501520151910152565b634e487b7160e01b81526011600452602490fd5b506020813d602011610e4d575b81610e30602093836110cd565b81010312610415575f5160206115a65f395f51905f529051610d4e565b3d9150610e23565b85513d85823e3d90fd5b63382a82a760e11b8352600483fd5b9095506020813d602011610e9a575b81610e8a602093836110cd565b8101031261041557519484610cdd565b3d9150610e7d565b87513d87823e3d90fd5b9096506020813d602011610ed8575b81610ec8602093836110cd565b810103126104155751955f610cb2565b3d9150610ebb565b86513d86823e3d90fd5b610ef79192505f906110cd565b5f905f610c31565b85513d5f823e3d90fd5b34610415575f366003190112610415576040517f00000000000000000000000000000000000000000000000000000000000000006001600160a01b03168152602090f35b34610415575f366003190112610415576040517f00000000000000000000000000000000000000000000000000000000000000006001600160a01b03168152602090f35b34610415575f366003190112610415576040517f00000000000000000000000000000000000000000000000000000000000000006001600160a01b03168152602090f35b34610415575f366003190112610415577f00000000000000000000000000000000000000000000000000000000000000006001600160a01b03168152602090f35b9181601f84011215610415578235916001600160401b038311610415576020838186019501011161041557565b606435906001600160a01b038216820361041557565b602435906001600160a01b038216820361041557565b35906001600160a01b038216820361041557565b606081019081106001600160401b0382111761109e57604052565b634e487b7160e01b5f52604160045260245ffd5b604081019081106001600160401b0382111761109e57604052565b90601f801991011681019081106001600160401b0382111761109e57604052565b604051906110fb82611083565b5f6040838281528260208201520152565b6040519061111b6040836110cd565b600e82526d0457865637574696e6720737761760941b6020830152565b3d15611171573d906001600160401b03821161109e5760405191611166601f8201601f1916602001846110cd565b82523d5f602084013e565b606090565b9190820391821161118357565b634e487b7160e01b5f52601160045260245ffd5b90816020910312610415575180151581036104155790565b9035601e19823603018112156104155701602081359101916001600160401b038211610415578160051b3603831361041557565b81835290916001600160fb1b0383116104155760209260051b809284830137010190565b60208152906001600160a01b0361121d8261106f565b16602083015260018060a01b036112366020830161106f565b1660408301526040810135606083015260608101356001600160401b038116809103610415576080830152608081013569ffffffffffffffffffff1981168091036104155760a083015260a081013560c083015260c081013560ff81168091036104155760e083015260e08101356101008301526101008101359163ffffffff83168093036104155761131c926101208201526101208201356101408201526113096112fd6112e96101408501856111af565b6101806101608601526101a08501916111e3565b926101608101906111af565b91610180601f19828603019101526111e3565b90565b60405163095ea7b360e01b81527f00000000000000000000000000000000000000000000000000000000000000006001600160a01b03811660048301526024820193909352909190602081806044810103815f7f00000000000000000000000000000000000000000000000000000000000000006001600160a01b03165af1908115611435575f9161144f575b5015611440576001600160a01b031690813b1561041557604051632433c70360e11b8152905f82806113e18460048301611207565b038183875af1908115611435577fa31e8bc1bdee2d6252cc2eaffcfd97de92d288a10a0c3699f5b066a6697a33b592602092611425575b50604080519101358152a2565b5f61142f916110cd565b5f611418565b6040513d5f823e3d90fd5b631a791b7760e11b5f5260045ffd5b611468915060203d6020116103d7576103c981836110cd565b5f6113ac565b5f60206114bf6064839460405193849163104c13eb60e21b828401528160248401528051918291826044860152018484015e85838284010152601f801991011681010301601f1981018352826110cd565b6020815191016a636f6e736f6c652e6c6f675afa50565b60405163095ea7b360e01b81526001600160a01b037f000000000000000000000000000000000000000000000000000000000000000081166004830152602482019290925291602091839160449183915f91165af1908115611435575f91611586575b501561154157565b60405162461bcd60e51b815260206004820152601860248201527f417070726f766520746f20726f75746572206661696c656400000000000000006044820152606490fd5b61159f915060203d6020116103d7576103c981836110cd565b5f61153956fe4d3257edb95914b701655f9bf4b58e4b422017a7b94dad03a20dae00f4b1cbb7a26469706673582212209fc11cc37a5da993af7520f26682f4e92bb7bbbb7180fa9749de456e319311dc64736f6c634300081c0033","linkReferences":{}},"methodIdentifiers":{"approveAndDepositTest((address,address,uint256,uint64,bytes22,bytes32,uint8,(bytes32,uint32,uint256),bytes32[],bytes32[]),uint256)":"a49e59f8","cbBTC()":"5ad182d3","executeSwap(bytes,address,uint256,address)":"9a9bf481","executeSwapAndDeposit(uint256,bytes,(address,address,uint256,uint64,bytes22,bytes32,uint8,(bytes32,uint32,uint256),bytes32[],bytes32[]),address,((address,uint256),uint256,uint256),bytes)":"6ca79b93","executeSwapAndDepositTest(bytes,address,uint256,address,(address,address,uint256,uint64,bytes22,bytes32,uint8,(bytes32,uint32,uint256),bytes32[],bytes32[]))":"f2462740","permit2()":"12261ee7","permitTransfer(address,uint256,((address,uint256),uint256,uint256),bytes)":"cf61e1ec","riftExchange()":"1c919e10","swapRouter()":"c31c9c07","testFunction()":"e16b4a9b","universalRouter()":"35a9e4df"},"storageLayout":{"storage":[],"types":{}},"id":14}