{"abi":[{"type":"constructor","inputs":[{"name":"_swapRouter","type":"address","internalType":"address"},{"name":"_riftExchange","type":"address","internalType":"address"},{"name":"_cbBTC","type":"address","internalType":"address"},{"name":"_permit2","type":"address","internalType":"address"},{"name":"_universalRouter","type":"address","internalType":"address"}],"stateMutability":"nonpayable"},{"type":"function","name":"cbBTC","inputs":[],"outputs":[{"name":"","type":"address","internalType":"address"}],"stateMutability":"view"},{"type":"function","name":"executeSwapAndDeposit","inputs":[{"name":"amountIn","type":"uint256","internalType":"uint256"},{"name":"swapCalldata","type":"bytes","internalType":"bytes"},{"name":"params","type":"tuple","internalType":"struct Types.DepositLiquidityParams","components":[{"name":"depositOwnerAddress","type":"address","internalType":"address"},{"name":"specifiedPayoutAddress","type":"address","internalType":"address"},{"name":"depositAmount","type":"uint256","internalType":"uint256"},{"name":"expectedSats","type":"uint64","internalType":"uint64"},{"name":"btcPayoutScriptPubKey","type":"bytes22","internalType":"bytes22"},{"name":"depositSalt","type":"bytes32","internalType":"bytes32"},{"name":"confirmationBlocks","type":"uint8","internalType":"uint8"},{"name":"safeBlockLeaf","type":"tuple","internalType":"struct Types.BlockLeaf","components":[{"name":"blockHash","type":"bytes32","internalType":"bytes32"},{"name":"height","type":"uint32","internalType":"uint32"},{"name":"cumulativeChainwork","type":"uint256","internalType":"uint256"}]},{"name":"safeBlockSiblings","type":"bytes32[]","internalType":"bytes32[]"},{"name":"safeBlockPeaks","type":"bytes32[]","internalType":"bytes32[]"}]},{"name":"owner","type":"address","internalType":"address"},{"name":"permit","type":"tuple","internalType":"struct ISignatureTransfer.PermitTransferFrom","components":[{"name":"permitted","type":"tuple","internalType":"struct ISignatureTransfer.TokenPermissions","components":[{"name":"token","type":"address","internalType":"address"},{"name":"amount","type":"uint256","internalType":"uint256"}]},{"name":"nonce","type":"uint256","internalType":"uint256"},{"name":"deadline","type":"uint256","internalType":"uint256"}]},{"name":"signature","type":"bytes","internalType":"bytes"}],"outputs":[{"name":"cbBTCReceived","type":"uint256","internalType":"uint256"}],"stateMutability":"payable"},{"type":"function","name":"permit2","inputs":[],"outputs":[{"name":"","type":"address","internalType":"address"}],"stateMutability":"view"},{"type":"function","name":"riftExchange","inputs":[],"outputs":[{"name":"","type":"address","internalType":"address"}],"stateMutability":"view"},{"type":"function","name":"swapRouter","inputs":[],"outputs":[{"name":"","type":"address","internalType":"address"}],"stateMutability":"view"},{"type":"function","name":"universalRouter","inputs":[],"outputs":[{"name":"","type":"address","internalType":"address"}],"stateMutability":"view"},{"type":"event","name":"BundlerExecution","inputs":[{"name":"owner","type":"address","indexed":true,"internalType":"address"},{"name":"cbBTCReceived","type":"uint256","indexed":false,"internalType":"uint256"},{"name":"amountIn","type":"uint256","indexed":false,"internalType":"uint256"},{"name":"tokenIn","type":"address","indexed":false,"internalType":"address"}],"anonymous":false},{"type":"error","name":"ApprovalError","inputs":[{"name":"token","type":"address","internalType":"address"}]},{"type":"error","name":"ApprovalToRiftExchangeFailed","inputs":[]},{"type":"error","name":"SwapExecutionFailed","inputs":[]}],"bytecode":{"object":"0x610120806040523461015f5760a081610b3880380380916100208285610176565b83398101031261015f57610033816101ad565b90610040602082016101ad565b9161004d604083016101ad565b91610066608061005f606084016101ad565b92016101ad565b60809290925260a084905260c083905260e0526101005260405163095ea7b360e01b81526001600160a01b0392831660048201525f1960248201529116906020816044815f865af190811561016b575f9161012c575b501561011a5760405161097690816101c282396080518181816075015261025d015260a0518181816103aa01526107e5015260c0518181816102ce015261075d015260e05181818161014c0152610826015261010051816107a10152f35b6345f56ca760e11b5f5260045260245ffd5b90506020813d602011610163575b8161014760209383610176565b8101031261015f5751801515810361015f575f6100bc565b5f80fd5b3d915061013a565b6040513d5f823e3d90fd5b601f909101601f19168101906001600160401b0382119082101761019957604052565b634e487b7160e01b5f52604160045260245ffd5b51906001600160a01b038216820361015f5756fe6080806040526004361015610012575f80fd5b5f905f3560e01c90816312261ee714610814575080631c919e10146107d057806335a9e4df1461078c5780635ad182d3146107485780636ca79b93146100a75763c31c9c0714610060575f80fd5b346100a457806003193601126100a4576040517f00000000000000000000000000000000000000000000000000000000000000006001600160a01b03168152602090f35b80fd5b5061012036600319011261064e576004359060243567ffffffffffffffff811161064e576100d9903690600401610855565b909160443567ffffffffffffffff811161064e578060040190610180600319823603011261064e576064356001600160a01b038116949085900361064e57608036608319011261064e576101043567ffffffffffffffff811161064e57610144903690600401610855565b6040805191907f00000000000000000000000000000000000000000000000000000000000000006001600160a01b031690830167ffffffffffffffff81118482101761073457604052308352602083018b8152813b1561064e5760405163187945bd60e11b8152946084356001600160a01b038116929083900361064e57868581965f9894610124948a968598600487015260a435602487015260c435604487015260e435606487015260018060a01b0390511660848601525160a48501523360c485015261010060e485015281610104850152848401378181018301849052601f01601f191681010301925af1801561072957610714575b506001600160a01b0361024e610897565b60405163095ea7b360e01b81527f00000000000000000000000000000000000000000000000000000000000000006001600160a01b0381166004830152602482018b9052929091602091839160449183918b91165af19081156107095786916106ea575b50156106c7576040516370a0823160e01b8152306004820152967f00000000000000000000000000000000000000000000000000000000000000006001600160a01b03169290602089602481875afa9889156106bc578799610682575b5091818793849360405192839283378101848152039134905af13d1561067d573d67ffffffffffffffff81116106695760405190610357601f8201601f1916602001836108ad565b81528560203d92013e5b1561065a576040516370a0823160e01b815230600482015295602087602481855afa968715610603578597610622575b50860395861161060e5760405163095ea7b360e01b81527f00000000000000000000000000000000000000000000000000000000000000006001600160a01b038116600483015260248201889052916020908290604490829089905af19081156106035785916105d4575b50156105c5576001600160a01b031690813b156105c157604051632433c70360e11b815260206004820152926001600160a01b0361043982610883565b16602485015260018060a01b0361045260248401610883565b16604485015260448201356064850152606482013567ffffffffffffffff81168091036105bd576084850152608482013569ffffffffffffffffffff1981168091036105bd5760a485015260a482013560c485015260c482013560ff81168091036105bd5760e485015260e482013561010485015261010482013563ffffffff81168091036105bd57858561053d819561052a84989684966101248601526101248301356101448601526101646105226105106101448601846108e7565b610180848a01526101a489019161091c565b9301906108e7565b848303602319016101848601529061091c565b03925af180156105b25761059d575b50507f6c9677390f52deea636e3ee688a4ea0d2ebe2f8f0027a096fa30c6bb6d1cfb78606060209461057c610897565b604051918683528783015260018060a01b03166040820152a2604051908152f35b6105a88280926108ad565b6100a4578061054c565b6040513d84823e3d90fd5b8580fd5b8380fd5b631a791b7760e11b8452600484fd5b6105f6915060203d6020116105fc575b6105ee81836108ad565b8101906108cf565b5f6103fc565b503d6105e4565b6040513d87823e3d90fd5b634e487b7160e01b84526011600452602484fd5b9096506020813d602011610652575b8161063e602093836108ad565b8101031261064e5751955f610391565b5f80fd5b3d9150610631565b63382a82a760e11b8452600484fd5b634e487b7160e01b86526041600452602486fd5b610361565b91929098506020823d6020116106b4575b816106a0602093836108ad565b8101031261064e579051979091908661030f565b3d9150610693565b6040513d89823e3d90fd5b6024856106d2610897565b6345f56ca760e11b82526001600160a01b0316600452fd5b610703915060203d6020116105fc576105ee81836108ad565b5f6102b2565b6040513d88823e3d90fd5b6107219194505f906108ad565b5f925f61023d565b6040513d5f823e3d90fd5b634e487b7160e01b5f52604160045260245ffd5b3461064e575f36600319011261064e576040517f00000000000000000000000000000000000000000000000000000000000000006001600160a01b03168152602090f35b3461064e575f36600319011261064e576040517f00000000000000000000000000000000000000000000000000000000000000006001600160a01b03168152602090f35b3461064e575f36600319011261064e576040517f00000000000000000000000000000000000000000000000000000000000000006001600160a01b03168152602090f35b3461064e575f36600319011261064e577f00000000000000000000000000000000000000000000000000000000000000006001600160a01b03168152602090f35b9181601f8401121561064e5782359167ffffffffffffffff831161064e576020838186019501011161064e57565b35906001600160a01b038216820361064e57565b6084356001600160a01b038116810361064e5790565b90601f8019910116810190811067ffffffffffffffff82111761073457604052565b9081602091031261064e5751801515810361064e5790565b9035601e198236030181121561064e57016020813591019167ffffffffffffffff821161064e578160051b3603831361064e57565b81835290916001600160fb1b03831161064e5760209260051b80928483013701019056fea2646970667358221220335e314b883742dbe435296d71cb21c47592e96e2980fdddd40696f5f639618464736f6c634300081c0033","linkReferences":{}},"methodIdentifiers":{"cbBTC()":"5ad182d3","executeSwapAndDeposit(uint256,bytes,(address,address,uint256,uint64,bytes22,bytes32,uint8,(bytes32,uint32,uint256),bytes32[],bytes32[]),address,((address,uint256),uint256,uint256),bytes)":"6ca79b93","permit2()":"12261ee7","riftExchange()":"1c919e10","swapRouter()":"c31c9c07","universalRouter()":"35a9e4df"},"storageLayout":{"storage":[],"types":{}},"id":43}